{
	"data": {
		"bytecode": {
			"linkReferences": {},
			"object": "6080604052348015600e575f5ffd5b506108528061001c5f395ff3fe608060405234801561000f575f5ffd5b506004361061004a575f3560e01c80630121b93f1461004e5780633477ee2e1461006a578063462e91ec1461009c578063a9a981a3146100b8575b5f5ffd5b6100686004803603810190610063919061026a565b6100d6565b005b610084600480360381019061007f919061026a565b610101565b60405161009393929190610314565b60405180910390f35b6100b660048036038101906100b1919061047c565b6101ac565b005b6100c0610220565b6040516100cd91906104c3565b60405180910390f35b5f5f8281526020019081526020015f206002015f8154809291906100f990610509565b919050555050565b5f602052805f5260405f205f91509050805f0154908060010180546101259061057d565b80601f01602080910402602001604051908101604052809291908181526020018280546101519061057d565b801561019c5780601f106101735761010080835404028352916020019161019c565b820191905f5260205f20905b81548152906001019060200180831161017f57829003601f168201915b5050505050908060020154905083565b60015f8154809291906101be90610509565b9190505550604051806060016040528060015481526020018281526020015f8152505f5f60015481526020019081526020015f205f820151815f0155602082015181600101908161020f919061074d565b506040820151816002015590505050565b60015481565b5f604051905090565b5f5ffd5b5f5ffd5b5f819050919050565b61024981610237565b8114610253575f5ffd5b50565b5f8135905061026481610240565b92915050565b5f6020828403121561027f5761027e61022f565b5b5f61028c84828501610256565b91505092915050565b61029e81610237565b82525050565b5f81519050919050565b5f82825260208201905092915050565b8281835e5f83830152505050565b5f601f19601f8301169050919050565b5f6102e6826102a4565b6102f081856102ae565b93506103008185602086016102be565b610309816102cc565b840191505092915050565b5f6060820190506103275f830186610295565b818103602083015261033981856102dc565b90506103486040830184610295565b949350505050565b5f5ffd5b5f5ffd5b7f4e487b71000000000000000000000000000000000000000000000000000000005f52604160045260245ffd5b61038e826102cc565b810181811067ffffffffffffffff821117156103ad576103ac610358565b5b80604052505050565b5f6103bf610226565b90506103cb8282610385565b919050565b5f67ffffffffffffffff8211156103ea576103e9610358565b5b6103f3826102cc565b9050602081019050919050565b828183375f83830152505050565b5f61042061041b846103d0565b6103b6565b90508281526020810184848401111561043c5761043b610354565b5b610447848285610400565b509392505050565b5f82601f83011261046357610462610350565b5b813561047384826020860161040e565b91505092915050565b5f602082840312156104915761049061022f565b5b5f82013567ffffffffffffffff8111156104ae576104ad610233565b5b6104ba8482850161044f565b91505092915050565b5f6020820190506104d65f830184610295565b92915050565b7f4e487b71000000000000000000000000000000000000000000000000000000005f52601160045260245ffd5b5f61051382610237565b91507fffffffffffffffffffffffffffffffffffffffffffffffffffffffffffffffff8203610545576105446104dc565b5b600182019050919050565b7f4e487b71000000000000000000000000000000000000000000000000000000005f52602260045260245ffd5b5f600282049050600182168061059457607f821691505b6020821081036105a7576105a6610550565b5b50919050565b5f819050815f5260205f209050919050565b5f6020601f8301049050919050565b5f82821b905092915050565b5f600883026106097fffffffffffffffffffffffffffffffffffffffffffffffffffffffffffffffff826105ce565b61061386836105ce565b95508019841693508086168417925050509392505050565b5f819050919050565b5f61064e61064961064484610237565b61062b565b610237565b9050919050565b5f819050919050565b61066783610634565b61067b61067382610655565b8484546105da565b825550505050565b5f5f905090565b610692610683565b61069d81848461065e565b505050565b5b818110156106c0576106b55f8261068a565b6001810190506106a3565b5050565b601f821115610705576106d6816105ad565b6106df846105bf565b810160208510156106ee578190505b6107026106fa856105bf565b8301826106a2565b50505b505050565b5f82821c905092915050565b5f6107255f198460080261070a565b1980831691505092915050565b5f61073d8383610716565b9150826002028217905092915050565b610756826102a4565b67ffffffffffffffff81111561076f5761076e610358565b5b610779825461057d565b6107848282856106c4565b5f60209050601f8311600181146107b5575f84156107a3578287015190505b6107ad8582610732565b865550610814565b601f1984166107c3866105ad565b5f5b828110156107ea578489015182556001820191506020850194506020810190506107c5565b868310156108075784890151610803601f891682610716565b8355505b6001600288020188555050505b50505050505056fea26469706673582212208773ef3658968d8e49266c5d1b62c32dd4c5559f5c49237e750bd73f5a13dfaf64736f6c634300081e0033",
			"opcodes": "PUSH1 0x80 PUSH1 0x40 MSTORE CALLVALUE DUP1 ISZERO PUSH1 0xE JUMPI PUSH0 PUSH0 REVERT JUMPDEST POP PUSH2 0x852 DUP1 PUSH2 0x1C PUSH0 CODECOPY PUSH0 RETURN INVALID PUSH1 0x80 PUSH1 0x40 MSTORE CALLVALUE DUP1 ISZERO PUSH2 0xF JUMPI PUSH0 PUSH0 REVERT JUMPDEST POP PUSH1 0x4 CALLDATASIZE LT PUSH2 0x4A JUMPI PUSH0 CALLDATALOAD PUSH1 0xE0 SHR DUP1 PUSH4 0x121B93F EQ PUSH2 0x4E JUMPI DUP1 PUSH4 0x3477EE2E EQ PUSH2 0x6A JUMPI DUP1 PUSH4 0x462E91EC EQ PUSH2 0x9C JUMPI DUP1 PUSH4 0xA9A981A3 EQ PUSH2 0xB8 JUMPI JUMPDEST PUSH0 PUSH0 REVERT JUMPDEST PUSH2 0x68 PUSH1 0x4 DUP1 CALLDATASIZE SUB DUP2 ADD SWAP1 PUSH2 0x63 SWAP2 SWAP1 PUSH2 0x26A JUMP JUMPDEST PUSH2 0xD6 JUMP JUMPDEST STOP JUMPDEST PUSH2 0x84 PUSH1 0x4 DUP1 CALLDATASIZE SUB DUP2 ADD SWAP1 PUSH2 0x7F SWAP2 SWAP1 PUSH2 0x26A JUMP JUMPDEST PUSH2 0x101 JUMP JUMPDEST PUSH1 0x40 MLOAD PUSH2 0x93 SWAP4 SWAP3 SWAP2 SWAP1 PUSH2 0x314 JUMP JUMPDEST PUSH1 0x40 MLOAD DUP1 SWAP2 SUB SWAP1 RETURN JUMPDEST PUSH2 0xB6 PUSH1 0x4 DUP1 CALLDATASIZE SUB DUP2 ADD SWAP1 PUSH2 0xB1 SWAP2 SWAP1 PUSH2 0x47C JUMP JUMPDEST PUSH2 0x1AC JUMP JUMPDEST STOP JUMPDEST PUSH2 0xC0 PUSH2 0x220 JUMP JUMPDEST PUSH1 0x40 MLOAD PUSH2 0xCD SWAP2 SWAP1 PUSH2 0x4C3 JUMP JUMPDEST PUSH1 0x40 MLOAD DUP1 SWAP2 SUB SWAP1 RETURN JUMPDEST PUSH0 PUSH0 DUP3 DUP2 MSTORE PUSH1 0x20 ADD SWAP1 DUP2 MSTORE PUSH1 0x20 ADD PUSH0 KECCAK256 PUSH1 0x2 ADD PUSH0 DUP2 SLOAD DUP1 SWAP3 SWAP2 SWAP1 PUSH2 0xF9 SWAP1 PUSH2 0x509 JUMP JUMPDEST SWAP2 SWAP1 POP SSTORE POP POP JUMP JUMPDEST PUSH0 PUSH1 0x20 MSTORE DUP1 PUSH0 MSTORE PUSH1 0x40 PUSH0 KECCAK256 PUSH0 SWAP2 POP SWAP1 POP DUP1 PUSH0 ADD SLOAD SWAP1 DUP1 PUSH1 0x1 ADD DUP1 SLOAD PUSH2 0x125 SWAP1 PUSH2 0x57D JUMP JUMPDEST DUP1 PUSH1 0x1F ADD PUSH1 0x20 DUP1 SWAP2 DIV MUL PUSH1 0x20 ADD PUSH1 0x40 MLOAD SWAP1 DUP2 ADD PUSH1 0x40 MSTORE DUP1 SWAP3 SWAP2 SWAP1 DUP2 DUP2 MSTORE PUSH1 0x20 ADD DUP3 DUP1 SLOAD PUSH2 0x151 SWAP1 PUSH2 0x57D JUMP JUMPDEST DUP1 ISZERO PUSH2 0x19C JUMPI DUP1 PUSH1 0x1F LT PUSH2 0x173 JUMPI PUSH2 0x100 DUP1 DUP4 SLOAD DIV MUL DUP4 MSTORE SWAP2 PUSH1 0x20 ADD SWAP2 PUSH2 0x19C JUMP JUMPDEST DUP3 ADD SWAP2 SWAP1 PUSH0 MSTORE PUSH1 0x20 PUSH0 KECCAK256 SWAP1 JUMPDEST DUP2 SLOAD DUP2 MSTORE SWAP1 PUSH1 0x1 ADD SWAP1 PUSH1 0x20 ADD DUP1 DUP4 GT PUSH2 0x17F JUMPI DUP3 SWAP1 SUB PUSH1 0x1F AND DUP3 ADD SWAP2 JUMPDEST POP POP POP POP POP SWAP1 DUP1 PUSH1 0x2 ADD SLOAD SWAP1 POP DUP4 JUMP JUMPDEST PUSH1 0x1 PUSH0 DUP2 SLOAD DUP1 SWAP3 SWAP2 SWAP1 PUSH2 0x1BE SWAP1 PUSH2 0x509 JUMP JUMPDEST SWAP2 SWAP1 POP SSTORE POP PUSH1 0x40 MLOAD DUP1 PUSH1 0x60 ADD PUSH1 0x40 MSTORE DUP1 PUSH1 0x1 SLOAD DUP2 MSTORE PUSH1 0x20 ADD DUP3 DUP2 MSTORE PUSH1 0x20 ADD PUSH0 DUP2 MSTORE POP PUSH0 PUSH0 PUSH1 0x1 SLOAD DUP2 MSTORE PUSH1 0x20 ADD SWAP1 DUP2 MSTORE PUSH1 0x20 ADD PUSH0 KECCAK256 PUSH0 DUP3 ADD MLOAD DUP2 PUSH0 ADD SSTORE PUSH1 0x20 DUP3 ADD MLOAD DUP2 PUSH1 0x1 ADD SWAP1 DUP2 PUSH2 0x20F SWAP2 SWAP1 PUSH2 0x74D JUMP JUMPDEST POP PUSH1 0x40 DUP3 ADD MLOAD DUP2 PUSH1 0x2 ADD SSTORE SWAP1 POP POP POP JUMP JUMPDEST PUSH1 0x1 SLOAD DUP2 JUMP JUMPDEST PUSH0 PUSH1 0x40 MLOAD SWAP1 POP SWAP1 JUMP JUMPDEST PUSH0 PUSH0 REVERT JUMPDEST PUSH0 PUSH0 REVERT JUMPDEST PUSH0 DUP2 SWAP1 POP SWAP2 SWAP1 POP JUMP JUMPDEST PUSH2 0x249 DUP2 PUSH2 0x237 JUMP JUMPDEST DUP2 EQ PUSH2 0x253 JUMPI PUSH0 PUSH0 REVERT JUMPDEST POP JUMP JUMPDEST PUSH0 DUP2 CALLDATALOAD SWAP1 POP PUSH2 0x264 DUP2 PUSH2 0x240 JUMP JUMPDEST SWAP3 SWAP2 POP POP JUMP JUMPDEST PUSH0 PUSH1 0x20 DUP3 DUP5 SUB SLT ISZERO PUSH2 0x27F JUMPI PUSH2 0x27E PUSH2 0x22F JUMP JUMPDEST JUMPDEST PUSH0 PUSH2 0x28C DUP5 DUP3 DUP6 ADD PUSH2 0x256 JUMP JUMPDEST SWAP2 POP POP SWAP3 SWAP2 POP POP JUMP JUMPDEST PUSH2 0x29E DUP2 PUSH2 0x237 JUMP JUMPDEST DUP3 MSTORE POP POP JUMP JUMPDEST PUSH0 DUP2 MLOAD SWAP1 POP SWAP2 SWAP1 POP JUMP JUMPDEST PUSH0 DUP3 DUP3 MSTORE PUSH1 0x20 DUP3 ADD SWAP1 POP SWAP3 SWAP2 POP POP JUMP JUMPDEST DUP3 DUP2 DUP4 MCOPY PUSH0 DUP4 DUP4 ADD MSTORE POP POP POP JUMP JUMPDEST PUSH0 PUSH1 0x1F NOT PUSH1 0x1F DUP4 ADD AND SWAP1 POP SWAP2 SWAP1 POP JUMP JUMPDEST PUSH0 PUSH2 0x2E6 DUP3 PUSH2 0x2A4 JUMP JUMPDEST PUSH2 0x2F0 DUP2 DUP6 PUSH2 0x2AE JUMP JUMPDEST SWAP4 POP PUSH2 0x300 DUP2 DUP6 PUSH1 0x20 DUP7 ADD PUSH2 0x2BE JUMP JUMPDEST PUSH2 0x309 DUP2 PUSH2 0x2CC JUMP JUMPDEST DUP5 ADD SWAP2 POP POP SWAP3 SWAP2 POP POP JUMP JUMPDEST PUSH0 PUSH1 0x60 DUP3 ADD SWAP1 POP PUSH2 0x327 PUSH0 DUP4 ADD DUP7 PUSH2 0x295 JUMP JUMPDEST DUP2 DUP2 SUB PUSH1 0x20 DUP4 ADD MSTORE PUSH2 0x339 DUP2 DUP6 PUSH2 0x2DC JUMP JUMPDEST SWAP1 POP PUSH2 0x348 PUSH1 0x40 DUP4 ADD DUP5 PUSH2 0x295 JUMP JUMPDEST SWAP5 SWAP4 POP POP POP POP JUMP JUMPDEST PUSH0 PUSH0 REVERT JUMPDEST PUSH0 PUSH0 REVERT JUMPDEST PUSH32 0x4E487B7100000000000000000000000000000000000000000000000000000000 PUSH0 MSTORE PUSH1 0x41 PUSH1 0x4 MSTORE PUSH1 0x24 PUSH0 REVERT JUMPDEST PUSH2 0x38E DUP3 PUSH2 0x2CC JUMP JUMPDEST DUP2 ADD DUP2 DUP2 LT PUSH8 0xFFFFFFFFFFFFFFFF DUP3 GT OR ISZERO PUSH2 0x3AD JUMPI PUSH2 0x3AC PUSH2 0x358 JUMP JUMPDEST JUMPDEST DUP1 PUSH1 0x40 MSTORE POP POP POP JUMP JUMPDEST PUSH0 PUSH2 0x3BF PUSH2 0x226 JUMP JUMPDEST SWAP1 POP PUSH2 0x3CB DUP3 DUP3 PUSH2 0x385 JUMP JUMPDEST SWAP2 SWAP1 POP JUMP JUMPDEST PUSH0 PUSH8 0xFFFFFFFFFFFFFFFF DUP3 GT ISZERO PUSH2 0x3EA JUMPI PUSH2 0x3E9 PUSH2 0x358 JUMP JUMPDEST JUMPDEST PUSH2 0x3F3 DUP3 PUSH2 0x2CC JUMP JUMPDEST SWAP1 POP PUSH1 0x20 DUP2 ADD SWAP1 POP SWAP2 SWAP1 POP JUMP JUMPDEST DUP3 DUP2 DUP4 CALLDATACOPY PUSH0 DUP4 DUP4 ADD MSTORE POP POP POP JUMP JUMPDEST PUSH0 PUSH2 0x420 PUSH2 0x41B DUP5 PUSH2 0x3D0 JUMP JUMPDEST PUSH2 0x3B6 JUMP JUMPDEST SWAP1 POP DUP3 DUP2 MSTORE PUSH1 0x20 DUP2 ADD DUP5 DUP5 DUP5 ADD GT ISZERO PUSH2 0x43C JUMPI PUSH2 0x43B PUSH2 0x354 JUMP JUMPDEST JUMPDEST PUSH2 0x447 DUP5 DUP3 DUP6 PUSH2 0x400 JUMP JUMPDEST POP SWAP4 SWAP3 POP POP POP JUMP JUMPDEST PUSH0 DUP3 PUSH1 0x1F DUP4 ADD SLT PUSH2 0x463 JUMPI PUSH2 0x462 PUSH2 0x350 JUMP JUMPDEST JUMPDEST DUP2 CALLDATALOAD PUSH2 0x473 DUP5 DUP3 PUSH1 0x20 DUP7 ADD PUSH2 0x40E JUMP JUMPDEST SWAP2 POP POP SWAP3 SWAP2 POP POP JUMP JUMPDEST PUSH0 PUSH1 0x20 DUP3 DUP5 SUB SLT ISZERO PUSH2 0x491 JUMPI PUSH2 0x490 PUSH2 0x22F JUMP JUMPDEST JUMPDEST PUSH0 DUP3 ADD CALLDATALOAD PUSH8 0xFFFFFFFFFFFFFFFF DUP2 GT ISZERO PUSH2 0x4AE JUMPI PUSH2 0x4AD PUSH2 0x233 JUMP JUMPDEST JUMPDEST PUSH2 0x4BA DUP5 DUP3 DUP6 ADD PUSH2 0x44F JUMP JUMPDEST SWAP2 POP POP SWAP3 SWAP2 POP POP JUMP JUMPDEST PUSH0 PUSH1 0x20 DUP3 ADD SWAP1 POP PUSH2 0x4D6 PUSH0 DUP4 ADD DUP5 PUSH2 0x295 JUMP JUMPDEST SWAP3 SWAP2 POP POP JUMP JUMPDEST PUSH32 0x4E487B7100000000000000000000000000000000000000000000000000000000 PUSH0 MSTORE PUSH1 0x11 PUSH1 0x4 MSTORE PUSH1 0x24 PUSH0 REVERT JUMPDEST PUSH0 PUSH2 0x513 DUP3 PUSH2 0x237 JUMP JUMPDEST SWAP2 POP PUSH32 0xFFFFFFFFFFFFFFFFFFFFFFFFFFFFFFFFFFFFFFFFFFFFFFFFFFFFFFFFFFFFFFFF DUP3 SUB PUSH2 0x545 JUMPI PUSH2 0x544 PUSH2 0x4DC JUMP JUMPDEST JUMPDEST PUSH1 0x1 DUP3 ADD SWAP1 POP SWAP2 SWAP1 POP JUMP JUMPDEST PUSH32 0x4E487B7100000000000000000000000000000000000000000000000000000000 PUSH0 MSTORE PUSH1 0x22 PUSH1 0x4 MSTORE PUSH1 0x24 PUSH0 REVERT JUMPDEST PUSH0 PUSH1 0x2 DUP3 DIV SWAP1 POP PUSH1 0x1 DUP3 AND DUP1 PUSH2 0x594 JUMPI PUSH1 0x7F DUP3 AND SWAP2 POP JUMPDEST PUSH1 0x20 DUP3 LT DUP2 SUB PUSH2 0x5A7 JUMPI PUSH2 0x5A6 PUSH2 0x550 JUMP JUMPDEST JUMPDEST POP SWAP2 SWAP1 POP JUMP JUMPDEST PUSH0 DUP2 SWAP1 POP DUP2 PUSH0 MSTORE PUSH1 0x20 PUSH0 KECCAK256 SWAP1 POP SWAP2 SWAP1 POP JUMP JUMPDEST PUSH0 PUSH1 0x20 PUSH1 0x1F DUP4 ADD DIV SWAP1 POP SWAP2 SWAP1 POP JUMP JUMPDEST PUSH0 DUP3 DUP3 SHL SWAP1 POP SWAP3 SWAP2 POP POP JUMP JUMPDEST PUSH0 PUSH1 0x8 DUP4 MUL PUSH2 0x609 PUSH32 0xFFFFFFFFFFFFFFFFFFFFFFFFFFFFFFFFFFFFFFFFFFFFFFFFFFFFFFFFFFFFFFFF DUP3 PUSH2 0x5CE JUMP JUMPDEST PUSH2 0x613 DUP7 DUP4 PUSH2 0x5CE JUMP JUMPDEST SWAP6 POP DUP1 NOT DUP5 AND SWAP4 POP DUP1 DUP7 AND DUP5 OR SWAP3 POP POP POP SWAP4 SWAP3 POP POP POP JUMP JUMPDEST PUSH0 DUP2 SWAP1 POP SWAP2 SWAP1 POP JUMP JUMPDEST PUSH0 PUSH2 0x64E PUSH2 0x649 PUSH2 0x644 DUP5 PUSH2 0x237 JUMP JUMPDEST PUSH2 0x62B JUMP JUMPDEST PUSH2 0x237 JUMP JUMPDEST SWAP1 POP SWAP2 SWAP1 POP JUMP JUMPDEST PUSH0 DUP2 SWAP1 POP SWAP2 SWAP1 POP JUMP JUMPDEST PUSH2 0x667 DUP4 PUSH2 0x634 JUMP JUMPDEST PUSH2 0x67B PUSH2 0x673 DUP3 PUSH2 0x655 JUMP JUMPDEST DUP5 DUP5 SLOAD PUSH2 0x5DA JUMP JUMPDEST DUP3 SSTORE POP POP POP POP JUMP JUMPDEST PUSH0 PUSH0 SWAP1 POP SWAP1 JUMP JUMPDEST PUSH2 0x692 PUSH2 0x683 JUMP JUMPDEST PUSH2 0x69D DUP2 DUP5 DUP5 PUSH2 0x65E JUMP JUMPDEST POP POP POP JUMP JUMPDEST JUMPDEST DUP2 DUP2 LT ISZERO PUSH2 0x6C0 JUMPI PUSH2 0x6B5 PUSH0 DUP3 PUSH2 0x68A JUMP JUMPDEST PUSH1 0x1 DUP2 ADD SWAP1 POP PUSH2 0x6A3 JUMP JUMPDEST POP POP JUMP JUMPDEST PUSH1 0x1F DUP3 GT ISZERO PUSH2 0x705 JUMPI PUSH2 0x6D6 DUP2 PUSH2 0x5AD JUMP JUMPDEST PUSH2 0x6DF DUP5 PUSH2 0x5BF JUMP JUMPDEST DUP2 ADD PUSH1 0x20 DUP6 LT ISZERO PUSH2 0x6EE JUMPI DUP2 SWAP1 POP JUMPDEST PUSH2 0x702 PUSH2 0x6FA DUP6 PUSH2 0x5BF JUMP JUMPDEST DUP4 ADD DUP3 PUSH2 0x6A2 JUMP JUMPDEST POP POP JUMPDEST POP POP POP JUMP JUMPDEST PUSH0 DUP3 DUP3 SHR SWAP1 POP SWAP3 SWAP2 POP POP JUMP JUMPDEST PUSH0 PUSH2 0x725 PUSH0 NOT DUP5 PUSH1 0x8 MUL PUSH2 0x70A JUMP JUMPDEST NOT DUP1 DUP4 AND SWAP2 POP POP SWAP3 SWAP2 POP POP JUMP JUMPDEST PUSH0 PUSH2 0x73D DUP4 DUP4 PUSH2 0x716 JUMP JUMPDEST SWAP2 POP DUP3 PUSH1 0x2 MUL DUP3 OR SWAP1 POP SWAP3 SWAP2 POP POP JUMP JUMPDEST PUSH2 0x756 DUP3 PUSH2 0x2A4 JUMP JUMPDEST PUSH8 0xFFFFFFFFFFFFFFFF DUP2 GT ISZERO PUSH2 0x76F JUMPI PUSH2 0x76E PUSH2 0x358 JUMP JUMPDEST JUMPDEST PUSH2 0x779 DUP3 SLOAD PUSH2 0x57D JUMP JUMPDEST PUSH2 0x784 DUP3 DUP3 DUP6 PUSH2 0x6C4 JUMP JUMPDEST PUSH0 PUSH1 0x20 SWAP1 POP PUSH1 0x1F DUP4 GT PUSH1 0x1 DUP2 EQ PUSH2 0x7B5 JUMPI PUSH0 DUP5 ISZERO PUSH2 0x7A3 JUMPI DUP3 DUP8 ADD MLOAD SWAP1 POP JUMPDEST PUSH2 0x7AD DUP6 DUP3 PUSH2 0x732 JUMP JUMPDEST DUP7 SSTORE POP PUSH2 0x814 JUMP JUMPDEST PUSH1 0x1F NOT DUP5 AND PUSH2 0x7C3 DUP7 PUSH2 0x5AD JUMP JUMPDEST PUSH0 JUMPDEST DUP3 DUP2 LT ISZERO PUSH2 0x7EA JUMPI DUP5 DUP10 ADD MLOAD DUP3 SSTORE PUSH1 0x1 DUP3 ADD SWAP2 POP PUSH1 0x20 DUP6 ADD SWAP5 POP PUSH1 0x20 DUP2 ADD SWAP1 POP PUSH2 0x7C5 JUMP JUMPDEST DUP7 DUP4 LT ISZERO PUSH2 0x807 JUMPI DUP5 DUP10 ADD MLOAD PUSH2 0x803 PUSH1 0x1F DUP10 AND DUP3 PUSH2 0x716 JUMP JUMPDEST DUP4 SSTORE POP JUMPDEST PUSH1 0x1 PUSH1 0x2 DUP9 MUL ADD DUP9 SSTORE POP POP POP JUMPDEST POP POP POP POP POP POP JUMP INVALID LOG2 PUSH5 0x6970667358 0x22 SLT KECCAK256 DUP8 PUSH20 0xEF3658968D8E49266C5D1B62C32DD4C5559F5C49 0x23 PUSH31 0x750BD73F5A13DFAF64736F6C634300081E0033000000000000000000000000 "
		},
		"gasEstimates": {
			"creation": {
				"codeDepositCost": "426000",
				"executionCost": "459",
				"totalCost": "426459"
			},
			"external": {
				"addCandidate(string)": "infinite",
				"candidateCount()": "2469",
				"candidates(uint256)": "infinite",
				"vote(uint256)": "infinite"
			}
		},
		"methodIdentifiers": {
			"addCandidate(string)": "462e91ec",
			"candidateCount()": "a9a981a3",
			"candidates(uint256)": "3477ee2e",
			"vote(uint256)": "0121b93f"
		}
	},
	"abi": [
		{
			"inputs": [
				{
					"internalType": "string",
					"name": "_name",
					"type": "string"
				}
			],
			"name": "addCandidate",
			"outputs": [],
			"stateMutability": "nonpayable",
			"type": "function"
		},
		{
			"inputs": [],
			"name": "candidateCount",
			"outputs": [
				{
					"internalType": "uint256",
					"name": "",
					"type": "uint256"
				}
			],
			"stateMutability": "view",
			"type": "function"
		},
		{
			"inputs": [
				{
					"internalType": "uint256",
					"name": "",
					"type": "uint256"
				}
			],
			"name": "candidates",
			"outputs": [
				{
					"internalType": "uint256",
					"name": "id",
					"type": "uint256"
				},
				{
					"internalType": "string",
					"name": "name",
					"type": "string"
				},
				{
					"internalType": "uint256",
					"name": "voteCount",
					"type": "uint256"
				}
			],
			"stateMutability": "view",
			"type": "function"
		},
		{
			"inputs": [
				{
					"internalType": "uint256",
					"name": "_candidateId",
					"type": "uint256"
				}
			],
			"name": "vote",
			"outputs": [],
			"stateMutability": "nonpayable",
			"type": "function"
		}
	]
}